:0600000002002602000EC2
:03000B000201F2FD
:03001B00020203DB
:0300230002016572
:0D000E00C2AFC0E0C0D0D0D0D0E0D2AF3241
:1001F200C2AFC28CC28DC0E0C0D0D0D0D0E0D2AFEE
:1002020032C2AFC28EC28FC0E0C0D0D0D0D0E0D256
:02021200AF3209
:10016500C2AFC0E0C0D02099392098030201C9C0B0
:10017500E07401540BC2D4C2D323232342D0D0E070
:10018500740CC39599503DE599F6C299F599309946
:10019500FD0809D200B40D02C200B90A27C2000247
:1001A50001C9C0E07401540BC2D4C2D32323234236
:1001B500D0D0E0D201C29986993099FD08D9E3C221
:1001C500010201C9C298C299D0D0D0E0D2AF32C0E5
:1001D500E0C0D07802C28CC28D758C3C758AB0D2D5
:0D01E5008C308DFDD8EFC28CD0D0D0E02240
:10002600C2AF758162C200C2015389F04389015390
:1000360088CE438801C2A953890F43891053883E4D
:10004600438801C2ABC298C299C29CC2ACC29FD2BD
:100056009E53C800D2CDD2CC75CBFF75CAEED2CA9C
:100066007828C28CC28D758C3C758AB0D28C308D46
:10007600FDD8EFC0E07400540BC2D4C2D3232323AF
:1000860042D0D0E0D2AFC2ACC2998548993099FD32
:10009600D2ACC2ACC2998561993099FDD2ACC2ACE2
:1000A600C299856C993099FDD2ACC2ACC299856C67
:1000B600993099FDD2ACC2ACC299856F993099FD41
:1000C600D2ACC2ACC2998520993099FDD2ACC2ACF3
:1000D600C2998557993099FDD2ACC2ACC299856553
:1000E600993099FDD2ACC2ACC2998572993099FD0E
:1000F600D2ACC2ACC299856E993099FDD2ACC2AC75
:10010600C2998565993099FDD2ACC2ACC299857207
:10011600993099FDD2ACC2ACC29975990D3099FD52
:10012600D2ACC0E07401540BC2D4C2D32323234201
:10013600D0D0E078237900D29CD2AC3000FDB290CA
:100146002000FDB291C0E07401540BC2D4C2D32387
:0F015600232342D0D0E07823D29980C6020079CB
:00000001FF
