:0600000002002602000EC2
:03000B000200E010
:03001B000200F1EF
:0300230002009D3B
:0D000E00C2AFC0E0C0D0D0D0D0E0D2AF3241
:1000E000C2AFC28CC28DC0E0C0D0D0D0D0E0D2AF01
:1000F00032C2AFC28EC28FC0E0C0D0D0D0D0E0D26A
:02010000AF321C
:10009D00C2AFC0E0C0D02098030200AEE5990200C7
:1000AD00B77599003099FD0200B7C298C299D0D0AA
:1000BD00D0E0D2AF32C0E0C0D07814C28CC28D7502
:1000CD008C3C758AB0D28C308DFDD8EFC28CD0D0DF
:0300DD00D0E0224E
:10002600C2AF758126C2005389F04389015388CE39
:10003600438801C2A953890F43891053883E4388D8
:1000460001C2AB53C800D2CDD2CC75CBFF75CAEE78
:10005600C298C299C29FD29ED2CA7828C28CC28D3B
:10006600758C3C758AB0D28C308DFDD8EFD29CD27F
:10007600ACC0E07400540BC2D4C2D323232342D0B5
:10008600D0E0D2AF1200C2209007D290C2910200F7
:070096009BC290D29180DAB9
:00000001FF
