:0300000002060EE7
:03000B000204806C
:03001B000204805C
:0300030002047C78
:0300230002048054
:10078C00C0E0C0D0C0E07401540BC2D4C2D3232348
:10079C002342D0D0E0782279127C040809E6F7DCF9
:0607AC00FAD0D0D0E022DB
:1006C200C0E0C0D0C0E07403540BC2D4C2D3232311
:1006D2002342D0D0E0E954F0C4B40A25B8D103EBE8
:1006E200F500C201B8A205D201020703B8D012D2A6
:1006F2000BEA548023B400030207031207B2020775
:0607020003D0D0D0E0227C
:10038400C0E07401540BC2D4C2D323232342D0D07F
:10039400E0C0E0C0D0E599B40518208C030203A79F
:1003A400208E0FC2997599063099FD781779080245
:1003B40003B9020436208C15C28CC28D758C02756B
:1003C4008A18D28CD206C207C2980203E6208E6233
:1003D400C28EC28F758D02758B18D28ED207C2065B
:1003E400C29820981520070980F8C28CC20602041E
:1003F4003680EFC28EC207020436C298300605C2A8
:100404008C02040AC28E08A699B9010F78177907DD
:10041400E40826D9FCB51F06020443198097DA05BF
:100424007A03020436C2997599203099FDD20002EC
:100434000477D200C2997599153099FD020477C2E8
:10044400007A03C2997599063099FD208C14C28CE8
:10045400C28D758C02758A18D28C308DFDC28C02C7
:100464000477C28EC28F758D02758B18D28E308F31
:08047400FDC28ED0D0D0E022C1
:10054800C0E0C0D0C0E07401540BC2D4C2D323238E
:100558002342D0D0E0780F7907E40826D9FCF517B4
:10056800780F7908208C03020575208E0BC29975C7
:1005780099053099FD02058F020604C299088699EB
:100588003099FDD9F6D208208C15C28CC28D758C95
:1005980002758A18D28CD206C207C2980205BC20FE
:1005A8008E5AC28EC28F758D02758B18D28ED20765
:1005B800C206C29820981530060980F8C28CC20677
:1005C80002060480EFC28EC207020604C2983006F3
:1005D80005C28C0205E0C28EE599200805B4061C08
:1005E8008099C208B406030205FFB4200FDB05ABEF
:1005F80003020604020548C205020609D2050206DE
:0606080009D0D0D0E02271
:10028600C0E07400540BC2D4C2D323232342D0D07F
:10029600E0C0E07400540BC2D4C2D323232342D05F
:1002A600D0E07802C2ACC0E0C0D0C0E07402540B0B
:1002B600C2D4C2D323232342D0D0E078A130010791
:1002C600E519C4F90202DBE4F9740A540FF9740063
:1002D600540FC449F9E4E59054402310020554BF75
:1002E6000202EB444020030554DF0202F5442020BD
:1002F600040554EF0202FF4410FAE590540F42122F
:10030600B8A00612078C0203177B007C007D007ED6
:1003160000D0D0D0E0D2ACD2997914C28CC28D75FF
:100326008C3C758AB0D28C308DFDD9EFC28CC28DD3
:10033600758C3C758AB0D28C79783097EF308DFA0F
:10034600D803020362C28CC28D758C3C758AB0D20A
:100356008C3097E6308DFAD9EC020380C209C2963A
:100366007864C28CC28D758C3C758AB0D28C308D07
:0E037600FDD2AFD2A8200905D8E81207B222A6
:10016800C0E07400540BC2D4C2D323232342D0D09E
:10017800E07AC87B047823E5F0F675F0FF1BC28CA3
:10018800C28D758C3C758AB0D28C308DFDE5F0B48B
:10019800FF030201A708F675F0FFDBE20201ACDA03
:1001A800DD0202827823E6B4011B7824E6B4021546
:1001B8007825E6B4020F7826E6B40209C29CC2ACE0
:1001C800D20C02027D7823E6B401177824E6B40243
:1001D800117825E6B4010B7826E6B40205D20D02A3
:1001E800027DC2ACC0E0C0D0C0E07402540BC2D4DF
:1001F800C2D323232342D0D0E078A0300107E519E9
:10020800C4F902021BE4F9740A540FF97400540F7C
:10021800C449F9E4E59054402310020554BF020292
:100228002B444020030554DF0202354420200405F6
:1002380054EF02023F4410FAE590540F4212B8A05E
:100248000612078C0202577B007C007D007E00D0DE
:10025800D0D0E0D2ACD2997A14C28CC28D758C3CC5
:10026800758AB0D28C308DFD100B05DAEC02028253
:0E027800209607D20ED2090202851207B2228A
:10002600C0E07400540BC2D4C2D323232342D0D0E1
:10003600E075F0FF7AC8C28CC28D758C3C758AB0AB
:10004600D28C308DFDE5F0B4FF0B3004033000E4B4
:10005600DAE4020164B40C1D75F0FF7AC8C28CC2E2
:100066008D758C3C758AB0D28C308DFDE5F0B4FF71
:1000760007DAEA80AB0200E7300C0CB40A09120773
:1000860008D29CD2AC8099B4010612074A020164D8
:10009600B4020712074AD2028086B40341D2027B19
:1000A600037AC8C28CC28D758C3C758AB0D28C30EE
:1000B6008DFD200204C29CC2ACDAE8DBE4B29212E7
:1000C600074A7AC8C28CC28D758C3C758AB0D28CB0
:1000D600308DFDDAEFB292120708D29CD2AC020044
:1000E60026B40B0B43900FD20312074A020026B424
:1000F6000113B290C20320900612070802002612CE
:10010600074A020026B40213B291C20320910612D6
:10011600070802002612074A020026B40313B29209
:10012600C20320920612070802002612074A02009E
:1001360026B40413B293C2032093061207080200E2
:100146002612074A020026B4050E300E0BB2043002
:10015600040612070802002612074A0200261207A2
:02016600B222C3
:10070800C0E07400540BC2D4C2D323232342D0D0F8
:10071800E0C29CC2AFC294C28CC28D758C3C758AF3
:10072800B0D28C308DFDD2947B11C28CC28D758C69
:100738003C758AB0D28C308DFDDBEFC289D29CD259
:10074800AF22C0E07400540BC2D4C2D32323234287
:10075800D0D0E0C29CC2AFC295C28CC28D758C3C11
:10076800758AB0D28C308DFDD2957B11C28CC28D2A
:10077800758C3C758AB0D28C308DFDDBEFC289D286
:040788009CD2AF222E
:1007B200D296C209C204D29CD2ACC20CC20DC20EE5
:0107C2002214
:10060E00C2AF758126C200C202C203C204C205C2B5
:10061E0006C207C208C209C20AC20BC20CC20DC270
:10062E000CC20FC210C211C212C2134390C0C0E05E
:10063E007401540BC2D4C2D323232342D0D0E07A08
:10064E00037B03C0E07400540BC2D4C2D323232314
:10065E0042D0D0E05389F04389015388CE438801BC
:10066E00C2A953890F43891053883E438801C2ABF8
:10067E0053C800D2CDD2CC75CBFF75CAEEC298C28C
:10068E0099C29FD29ED2CA7828C28CC28D758C3CDC
:10069E00758AB0D28C308DFDD8EFD29CD2ACD2AF51
:1006AE002097FD1202863009F71201683009F11207
:0406BE00002680ECA6
:10047C00C2AFD20AC2AFC0E0C0D0100A03020499C6
:10048C00D20990FC00E0540FF5F002053D209803D2
:10049C0002052C1203843000030205291206C22027
:1004AC00010302053DC2ACC0E0C0D0C0E0740254F0
:1004BC000BC2D4C2D323232342D0D0E078D2300154
:1004CC0007E519C4F90204E2E4F9740A540FF9744B
:1004DC0000540FC449F9E4E590544023100205542C
:1004EC00BF0204F2444020030554DF0204FC442004
:1004FC0020040554EF0205064410FAE590540F420F
:10050C0012B8A00612078C02051E7B007C007D0031
:10051C007E00D0D0D0E0D2ACD29902052C02053DA1
:10052C0020990302053D300102C201120548020563
:0C053C003DD0D0D0E0C299C298D2AF32BE
:00000001FF
