:0600000002002602000EC2
:03000B0002014CA3
:03001B0002015D82
:030023000200CB0D
:0D000E00C2AFC0E0C0D0D0D0D0E0D2AF3241
:10014C00C2AFC28CC28DC0E0C0D0D0D0D0E0D2AF94
:10015C0032C2AFC28EC28FC0E0C0D0D0D0D0E0D2FD
:02016C00AF32B0
:1000CB00C2AFC0E0C0D020980620992F020123C0F8
:1000DB00E07401540BC2D4C2D323232342D0D0E00B
:1000EB00E599F6C299F5993099FD0809D200B40D3E
:1000FB0002C200B90A22C200020123C0E0740154FB
:10010B000BC2D4C2D323232342D0D0E0D201869991
:10011B0008D905C201020123C298C299D0D0D0E000
:10012B00D2AF32C0E0C0D07802C28CC28D758C3C8D
:10013B00758AB0D28C308DFDD8EFC28CD0D0D0E088
:01014B002291
:10002600C2AF758162C200C2015389F04389015390
:1000360088CE438801C2A953890F43891053883E4D
:10004600438801C2ABC298C299C29CC2ACC29FD2BD
:100056009E53C800D2CDD2CC75CBFF75CAEED2CA9C
:100066007828C28CC28D758C3C758AB0D28C308D46
:10007600FDD8EFC0E07400540BC2D4C2D3232323AF
:1000860042D0D0E0D2AFC0E07401540BC2D4C2D388
:1000960023232342D0D0E078237900D29CD2AC30FF
:1000A60000FDB2902000FDB291C0E07401540BC275
:1000B600D4C2D323232342D0D0E07823D29920017F
:0500C600FB80C380AEC9
:00000001FF
